{
  "_format": "hh-sol-artifact-1",
  "contractName": "Token",
  "sourceName": "contracts/token.sol",
  "abi": [
    {
      "inputs": [
        {
          "internalType": "string",
          "name": "_message",
          "type": "string"
        }
      ],
      "stateMutability": "nonpayable",
      "type": "constructor"
    },
    {
      "anonymous": false,
      "inputs": [
        {
          "indexed": false,
          "internalType": "string",
          "name": "message",
          "type": "string"
        }
      ],
      "name": "AdminMessage",
      "type": "event"
    },
    {
      "anonymous": false,
      "inputs": [
        {
          "indexed": false,
          "internalType": "string",
          "name": "oldMessage",
          "type": "string"
        },
        {
          "indexed": false,
          "internalType": "string",
          "name": "newMessage",
          "type": "string"
        }
      ],
      "name": "MessageUpdated",
      "type": "event"
    },
    {
      "anonymous": false,
      "inputs": [
        {
          "indexed": true,
          "internalType": "address",
          "name": "payer",
          "type": "address"
        },
        {
          "indexed": false,
          "internalType": "uint256",
          "name": "amount",
          "type": "uint256"
        },
        {
          "indexed": false,
          "internalType": "string",
          "name": "message",
          "type": "string"
        }
      ],
      "name": "PaymentLogged",
      "type": "event"
    },
    {
      "anonymous": false,
      "inputs": [
        {
          "indexed": true,
          "internalType": "address",
          "name": "user",
          "type": "address"
        },
        {
          "indexed": false,
          "internalType": "string",
          "name": "productName",
          "type": "string"
        },
        {
          "indexed": false,
          "internalType": "uint256",
          "name": "productPrice",
          "type": "uint256"
        }
      ],
      "name": "ProductAdded",
      "type": "event"
    },
    {
      "anonymous": false,
      "inputs": [
        {
          "indexed": true,
          "internalType": "address",
          "name": "user",
          "type": "address"
        },
        {
          "indexed": false,
          "internalType": "string",
          "name": "productName",
          "type": "string"
        },
        {
          "indexed": false,
          "internalType": "uint256",
          "name": "productPrice",
          "type": "uint256"
        }
      ],
      "name": "ProductBought",
      "type": "event"
    },
    {
      "anonymous": false,
      "inputs": [
        {
          "indexed": true,
          "internalType": "address",
          "name": "from",
          "type": "address"
        },
        {
          "indexed": true,
          "internalType": "address",
          "name": "to",
          "type": "address"
        },
        {
          "indexed": false,
          "internalType": "uint256",
          "name": "amount",
          "type": "uint256"
        }
      ],
      "name": "Transfer",
      "type": "event"
    },
    {
      "inputs": [
        {
          "internalType": "address",
          "name": "",
          "type": "address"
        }
      ],
      "name": "balanceOf",
      "outputs": [
        {
          "internalType": "uint256",
          "name": "",
          "type": "uint256"
        }
      ],
      "stateMutability": "view",
      "type": "function"
    },
    {
      "inputs": [],
      "name": "fetchLogs",
      "outputs": [
        {
          "components": [
            {
              "internalType": "address",
              "name": "user",
              "type": "address"
            },
            {
              "internalType": "string",
              "name": "action",
              "type": "string"
            },
            {
              "internalType": "string",
              "name": "productName",
              "type": "string"
            },
            {
              "internalType": "uint256",
              "name": "productPrice",
              "type": "uint256"
            },
            {
              "internalType": "uint256",
              "name": "timestamp",
              "type": "uint256"
            }
          ],
          "internalType": "struct Token.Log[]",
          "name": "",
          "type": "tuple[]"
        }
      ],
      "stateMutability": "view",
      "type": "function"
    },
    {
      "inputs": [
        {
          "internalType": "address",
          "name": "user",
          "type": "address"
        },
        {
          "internalType": "string",
          "name": "productName",
          "type": "string"
        },
        {
          "internalType": "uint256",
          "name": "productPrice",
          "type": "uint256"
        }
      ],
      "name": "logProductAddition",
      "outputs": [],
      "stateMutability": "nonpayable",
      "type": "function"
    },
    {
      "inputs": [
        {
          "internalType": "address",
          "name": "user",
          "type": "address"
        },
        {
          "internalType": "string",
          "name": "productName",
          "type": "string"
        },
        {
          "internalType": "uint256",
          "name": "productPrice",
          "type": "uint256"
        }
      ],
      "name": "logProductPurchase",
      "outputs": [],
      "stateMutability": "nonpayable",
      "type": "function"
    },
    {
      "inputs": [
        {
          "internalType": "uint256",
          "name": "",
          "type": "uint256"
        }
      ],
      "name": "logs",
      "outputs": [
        {
          "internalType": "address",
          "name": "user",
          "type": "address"
        },
        {
          "internalType": "string",
          "name": "action",
          "type": "string"
        },
        {
          "internalType": "string",
          "name": "productName",
          "type": "string"
        },
        {
          "internalType": "uint256",
          "name": "productPrice",
          "type": "uint256"
        },
        {
          "internalType": "uint256",
          "name": "timestamp",
          "type": "uint256"
        }
      ],
      "stateMutability": "view",
      "type": "function"
    },
    {
      "inputs": [],
      "name": "message",
      "outputs": [
        {
          "internalType": "string",
          "name": "",
          "type": "string"
        }
      ],
      "stateMutability": "view",
      "type": "function"
    },
    {
      "inputs": [],
      "name": "name",
      "outputs": [
        {
          "internalType": "string",
          "name": "",
          "type": "string"
        }
      ],
      "stateMutability": "view",
      "type": "function"
    },
    {
      "inputs": [],
      "name": "owner",
      "outputs": [
        {
          "internalType": "address",
          "name": "",
          "type": "address"
        }
      ],
      "stateMutability": "view",
      "type": "function"
    },
    {
      "inputs": [],
      "name": "symbol",
      "outputs": [
        {
          "internalType": "string",
          "name": "",
          "type": "string"
        }
      ],
      "stateMutability": "view",
      "type": "function"
    },
    {
      "inputs": [],
      "name": "totalSupply",
      "outputs": [
        {
          "internalType": "uint256",
          "name": "",
          "type": "uint256"
        }
      ],
      "stateMutability": "view",
      "type": "function"
    }
  ],
  "bytecode": "0x60806040526040518060400160405280600281526020017f4d790000000000000000000000000000000000000000000000000000000000008152506000908161004891906103d2565b506040518060400160405280600381526020017f4d485400000000000000000000000000000000000000000000000000000000008152506001908161008d91906103d2565b50620f42406002553480156100a157600080fd5b5060405161199638038061199683398181016040528101906100c391906105ea565b33600360006101000a81548173ffffffffffffffffffffffffffffffffffffffff021916908373ffffffffffffffffffffffffffffffffffffffff16021790555060025460046000600360009054906101000a900473ffffffffffffffffffffffffffffffffffffffff1673ffffffffffffffffffffffffffffffffffffffff1673ffffffffffffffffffffffffffffffffffffffff16815260200190815260200160002081905550806005908161017b91906103d2565b5050610633565b600081519050919050565b7f4e487b7100000000000000000000000000000000000000000000000000000000600052604160045260246000fd5b7f4e487b7100000000000000000000000000000000000000000000000000000000600052602260045260246000fd5b6000600282049050600182168061020357607f821691505b602082108103610216576102156101bc565b5b50919050565b60008190508160005260206000209050919050565b60006020601f8301049050919050565b600082821b905092915050565b60006008830261027e7fffffffffffffffffffffffffffffffffffffffffffffffffffffffffffffffff82610241565b6102888683610241565b95508019841693508086168417925050509392505050565b6000819050919050565b6000819050919050565b60006102cf6102ca6102c5846102a0565b6102aa565b6102a0565b9050919050565b6000819050919050565b6102e9836102b4565b6102fd6102f5826102d6565b84845461024e565b825550505050565b600090565b610312610305565b61031d8184846102e0565b505050565b5b818110156103415761033660008261030a565b600181019050610323565b5050565b601f821115610386576103578161021c565b61036084610231565b8101602085101561036f578190505b61038361037b85610231565b830182610322565b50505b505050565b600082821c905092915050565b60006103a96000198460080261038b565b1980831691505092915050565b60006103c28383610398565b9150826002028217905092915050565b6103db82610182565b67ffffffffffffffff8111156103f4576103f361018d565b5b6103fe82546101eb565b610409828285610345565b600060209050601f83116001811461043c576000841561042a578287015190505b61043485826103b6565b86555061049c565b601f19841661044a8661021c565b60005b828110156104725784890151825560018201915060208501945060208101905061044d565b8683101561048f578489015161048b601f891682610398565b8355505b6001600288020188555050505b505050505050565b6000604051905090565b600080fd5b600080fd5b600080fd5b600080fd5b6000601f19601f8301169050919050565b6104dc826104c2565b810181811067ffffffffffffffff821117156104fb576104fa61018d565b5b80604052505050565b600061050e6104a4565b905061051a82826104d3565b919050565b600067ffffffffffffffff82111561053a5761053961018d565b5b610543826104c2565b9050602081019050919050565b60005b8381101561056e578082015181840152602081019050610553565b60008484015250505050565b600061058d6105888461051f565b610504565b9050828152602081018484840111156105a9576105a86104bd565b5b6105b4848285610550565b509392505050565b600082601f8301126105d1576105d06104b8565b5b81516105e184826020860161057a565b91505092915050565b600060208284031215610600576105ff6104ae565b5b600082015167ffffffffffffffff81111561061e5761061d6104b3565b5b61062a848285016105bc565b91505092915050565b611354806106426000396000f3fe608060405234801561001057600080fd5b506004361061009e5760003560e01c8063987e6a7311610066578063987e6a731461014b5780639b322de814610167578063d90cd37e14610185578063e21f37ce146101a1578063e79899bd146101bf5761009e565b806306fdde03146100a357806318160ddd146100c157806370a08231146100df5780638da5cb5b1461010f57806395d89b411461012d575b600080fd5b6100ab6101f3565b6040516100b89190610aca565b60405180910390f35b6100c9610281565b6040516100d69190610b05565b60405180910390f35b6100f960048036038101906100f49190610b92565b610287565b6040516101069190610b05565b60405180910390f35b61011761029f565b6040516101249190610bce565b60405180910390f35b6101356102c5565b6040516101429190610aca565b60405180910390f35b61016560048036038101906101609190610d4a565b610353565b005b61016f6104ce565b60405161017c9190610f60565b60405180910390f35b61019f600480360381019061019a9190610d4a565b6106bb565b005b6101a9610836565b6040516101b69190610aca565b60405180910390f35b6101d960048036038101906101d49190610f82565b6108c4565b6040516101ea959493929190610faf565b60405180910390f35b600080546102009061103f565b80601f016020809104026020016040519081016040528092919081815260200182805461022c9061103f565b80156102795780601f1061024e57610100808354040283529160200191610279565b820191906000526020600020905b81548152906001019060200180831161025c57829003601f168201915b505050505081565b60025481565b60046020528060005260406000206000915090505481565b600360009054906101000a900473ffffffffffffffffffffffffffffffffffffffff1681565b600180546102d29061103f565b80601f01602080910402602001604051908101604052809291908181526020018280546102fe9061103f565b801561034b5780601f106103205761010080835404028352916020019161034b565b820191906000526020600020905b81548152906001019060200180831161032e57829003601f168201915b505050505081565b60066040518060a001604052808573ffffffffffffffffffffffffffffffffffffffff1681526020016040518060400160405280600581526020017f6164646564000000000000000000000000000000000000000000000000000000815250815260200184815260200183815260200142815250908060018154018082558091505060019003906000526020600020906005020160009091909190915060008201518160000160006101000a81548173ffffffffffffffffffffffffffffffffffffffff021916908373ffffffffffffffffffffffffffffffffffffffff160217905550602082015181600101908161044c919061121c565b506040820151816002019081610462919061121c565b50606082015181600301556080820151816004015550508273ffffffffffffffffffffffffffffffffffffffff167f71e4d22df116fdc915c131ee73a1b2033055d24fda3387bc49fed0c5f15a51eb83836040516104c19291906112ee565b60405180910390a2505050565b60606006805480602002602001604051908101604052809291908181526020016000905b828210156106b257838290600052602060002090600502016040518060a00160405290816000820160009054906101000a900473ffffffffffffffffffffffffffffffffffffffff1673ffffffffffffffffffffffffffffffffffffffff1673ffffffffffffffffffffffffffffffffffffffff16815260200160018201805461057b9061103f565b80601f01602080910402602001604051908101604052809291908181526020018280546105a79061103f565b80156105f45780601f106105c9576101008083540402835291602001916105f4565b820191906000526020600020905b8154815290600101906020018083116105d757829003601f168201915b5050505050815260200160028201805461060d9061103f565b80601f01602080910402602001604051908101604052809291908181526020018280546106399061103f565b80156106865780601f1061065b57610100808354040283529160200191610686565b820191906000526020600020905b81548152906001019060200180831161066957829003601f168201915b5050505050815260200160038201548152602001600482015481525050815260200190600101906104f2565b50505050905090565b60066040518060a001604052808573ffffffffffffffffffffffffffffffffffffffff1681526020016040518060400160405280600681526020017f626f756768740000000000000000000000000000000000000000000000000000815250815260200184815260200183815260200142815250908060018154018082558091505060019003906000526020600020906005020160009091909190915060008201518160000160006101000a81548173ffffffffffffffffffffffffffffffffffffffff021916908373ffffffffffffffffffffffffffffffffffffffff16021790555060208201518160010190816107b4919061121c565b5060408201518160020190816107ca919061121c565b50606082015181600301556080820151816004015550508273ffffffffffffffffffffffffffffffffffffffff167f343bd6f115aa567392f0fcf8d8115375de15420f6bdddacdf9b2b80bc9ef4c5b83836040516108299291906112ee565b60405180910390a2505050565b600580546108439061103f565b80601f016020809104026020016040519081016040528092919081815260200182805461086f9061103f565b80156108bc5780601f10610891576101008083540402835291602001916108bc565b820191906000526020600020905b81548152906001019060200180831161089f57829003601f168201915b505050505081565b600681815481106108d457600080fd5b90600052602060002090600502016000915090508060000160009054906101000a900473ffffffffffffffffffffffffffffffffffffffff169080600101805461091d9061103f565b80601f01602080910402602001604051908101604052809291908181526020018280546109499061103f565b80156109965780601f1061096b57610100808354040283529160200191610996565b820191906000526020600020905b81548152906001019060200180831161097957829003601f168201915b5050505050908060020180546109ab9061103f565b80601f01602080910402602001604051908101604052809291908181526020018280546109d79061103f565b8015610a245780601f106109f957610100808354040283529160200191610a24565b820191906000526020600020905b815481529060010190602001808311610a0757829003601f168201915b5050505050908060030154908060040154905085565b600081519050919050565b600082825260208201905092915050565b60005b83811015610a74578082015181840152602081019050610a59565b60008484015250505050565b6000601f19601f8301169050919050565b6000610a9c82610a3a565b610aa68185610a45565b9350610ab6818560208601610a56565b610abf81610a80565b840191505092915050565b60006020820190508181036000830152610ae48184610a91565b905092915050565b6000819050919050565b610aff81610aec565b82525050565b6000602082019050610b1a6000830184610af6565b92915050565b6000604051905090565b600080fd5b600080fd5b600073ffffffffffffffffffffffffffffffffffffffff82169050919050565b6000610b5f82610b34565b9050919050565b610b6f81610b54565b8114610b7a57600080fd5b50565b600081359050610b8c81610b66565b92915050565b600060208284031215610ba857610ba7610b2a565b5b6000610bb684828501610b7d565b91505092915050565b610bc881610b54565b82525050565b6000602082019050610be36000830184610bbf565b92915050565b600080fd5b600080fd5b7f4e487b7100000000000000000000000000000000000000000000000000000000600052604160045260246000fd5b610c2b82610a80565b810181811067ffffffffffffffff82111715610c4a57610c49610bf3565b5b80604052505050565b6000610c5d610b20565b9050610c698282610c22565b919050565b600067ffffffffffffffff821115610c8957610c88610bf3565b5b610c9282610a80565b9050602081019050919050565b82818337600083830152505050565b6000610cc1610cbc84610c6e565b610c53565b905082815260208101848484011115610cdd57610cdc610bee565b5b610ce8848285610c9f565b509392505050565b600082601f830112610d0557610d04610be9565b5b8135610d15848260208601610cae565b91505092915050565b610d2781610aec565b8114610d3257600080fd5b50565b600081359050610d4481610d1e565b92915050565b600080600060608486031215610d6357610d62610b2a565b5b6000610d7186828701610b7d565b935050602084013567ffffffffffffffff811115610d9257610d91610b2f565b5b610d9e86828701610cf0565b9250506040610daf86828701610d35565b9150509250925092565b600081519050919050565b600082825260208201905092915050565b6000819050602082019050919050565b610dee81610b54565b82525050565b600082825260208201905092915050565b6000610e1082610a3a565b610e1a8185610df4565b9350610e2a818560208601610a56565b610e3381610a80565b840191505092915050565b610e4781610aec565b82525050565b600060a083016000830151610e656000860182610de5565b5060208301518482036020860152610e7d8282610e05565b91505060408301518482036040860152610e978282610e05565b9150506060830151610eac6060860182610e3e565b506080830151610ebf6080860182610e3e565b508091505092915050565b6000610ed68383610e4d565b905092915050565b6000602082019050919050565b6000610ef682610db9565b610f008185610dc4565b935083602082028501610f1285610dd5565b8060005b85811015610f4e5784840389528151610f2f8582610eca565b9450610f3a83610ede565b925060208a01995050600181019050610f16565b50829750879550505050505092915050565b60006020820190508181036000830152610f7a8184610eeb565b905092915050565b600060208284031215610f9857610f97610b2a565b5b6000610fa684828501610d35565b91505092915050565b600060a082019050610fc46000830188610bbf565b8181036020830152610fd68187610a91565b90508181036040830152610fea8186610a91565b9050610ff96060830185610af6565b6110066080830184610af6565b9695505050505050565b7f4e487b7100000000000000000000000000000000000000000000000000000000600052602260045260246000fd5b6000600282049050600182168061105757607f821691505b60208210810361106a57611069611010565b5b50919050565b60008190508160005260206000209050919050565b60006020601f8301049050919050565b600082821b905092915050565b6000600883026110d27fffffffffffffffffffffffffffffffffffffffffffffffffffffffffffffffff82611095565b6110dc8683611095565b95508019841693508086168417925050509392505050565b6000819050919050565b600061111961111461110f84610aec565b6110f4565b610aec565b9050919050565b6000819050919050565b611133836110fe565b61114761113f82611120565b8484546110a2565b825550505050565b600090565b61115c61114f565b61116781848461112a565b505050565b5b8181101561118b57611180600082611154565b60018101905061116d565b5050565b601f8211156111d0576111a181611070565b6111aa84611085565b810160208510156111b9578190505b6111cd6111c585611085565b83018261116c565b50505b505050565b600082821c905092915050565b60006111f3600019846008026111d5565b1980831691505092915050565b600061120c83836111e2565b9150826002028217905092915050565b61122582610a3a565b67ffffffffffffffff81111561123e5761123d610bf3565b5b611248825461103f565b61125382828561118f565b600060209050601f8311600181146112865760008415611274578287015190505b61127e8582611200565b8655506112e6565b601f19841661129486611070565b60005b828110156112bc57848901518255600182019150602085019450602081019050611297565b868310156112d957848901516112d5601f8916826111e2565b8355505b6001600288020188555050505b505050505050565b600060408201905081810360008301526113088185610a91565b90506113176020830184610af6565b939250505056fea26469706673582212201c232abf4bb92053510ac1d6570c4c151b7a7b3e221fea5f7551f378a20be30b64736f6c634300081b0033",
  "linkReferences": {},
  "deployedLinkReferences": {}
}